:100000000C942A000C943F000C943F000C943F0089
:100010000C943F000C943F000C943F000C943F0064
:100020000C943F000C943F000C943F000C943F0054
:100030000C943F000C943F000C943F000C943F0044
:100040000C943F000C943F000C943F000C943F0034
:100050000C943F0011241FBECFE5D8E0DEBFCDBF1A
:1000600011E0A0E6B0E0EEE4F6E502C005900D92E6
:10007000AA3DB107D9F70E943F230C94252B0C947D
:100080000000EF92FF920F931F937B018C0120E001
:1000900030E040E05FE40E944D0488238CF0C8010A
:1000A000B70120E030E040E05FE40E94B9010E9427
:1000B0000B059B01AC01205030404040504806C029
:1000C000C801B7010E940B059B01AC01B901CA012F
:1000D0001F910F91FF90EF900895A0E0B0E0E3E74B
:1000E000F0E00C94EE2ADC012B01FA019C91923095
:1000F00008F439C1EB018881823008F433C19430AF
:1001000069F4843009F02FC111969C91119789816F
:10011000981709F428C1AFEAB0E025C1843009F48A
:1001200021C18230A9F4923009F01DC19A01AD01BC
:1001300088E0EA010990AE01E90109929E0181502F
:10014000C1F7E201898111969C918923818308C1BD
:10015000923009F407C112962D903C901397EB0151
:100160008A819B811496AD90BD90CD90DC901797BD
:10017000EC80FD800E811F819101281B390BB90194
:1001800037FF04C066277727621B730B6032710547
:100190000CF061C0121613066CF537014801062EEB
:1001A00004C096948794779467940A94D2F721E0D8
:1001B00030E040E050E004C0220F331F441F551FC1
:1001C0006A95D2F721503040404050402E213F21C7
:1001D00040235123211531054105510521F021E02E
:1001E00030E040E050E079018A01E628F72808294C
:1001F00019293CC0232BD1F1260E371E35014601AB
:10020000062E04C096948794779467940A94D2F744
:1002100021E030E040E050E004C0220F331F441FD3
:10022000551F6A95D2F721503040404050402A2156
:100230003B214C215D21211531054105510521F05E
:1002400021E030E040E050E059016A01A628B728DB
:10025000C828D9280BC0821593052CF01C01AA24AC
:10026000BB24650103C0EE24FF24870111969C91F5
:10027000D20111968C91981709F445C0992339F051
:10028000A80197012A193B094C095D0906C0A6017E
:1002900095012E193F09400B510B57FD08C01182E3
:1002A0003382228224833583468357831DC081E0B5
:1002B00081833382228288279927DC01821B930B5A
:1002C000A40BB50B84839583A683B7830DC0220F3F
:1002D000331F441F551F24833583468357838281F0
:1002E000938101979383828324813581468157814D
:1002F000DA01C9010197A109B1098F5F9F4FAF4F83
:10030000BF4328F30BC0918333822282EA0CFB1C8B
:100310000C1D1D1DE482F5820683178383E0808314
:10032000248135814681578157FF1AC0C901AA2708
:1003300097FDA095BA2F81709070A070B0705695FF
:10034000479537952795822B932BA42BB52B848328
:100350009583A683B7838281938101969383828359
:10036000DF0101C0D201CD01CDB7DEB7E2E10C94CF
:100370000A2BA0E2B0E0EFEBF1E00C94FA2A6983DB
:100380007A838B839C832D833E834F835887E9E058
:10039000EE2EF12CEC0EFD1ECE010196B7010E944F
:1003A000FC068E010F5E1F4FCE010596B8010E941C
:1003B000FC068A8991E089278A8BC701B801AE01C2
:1003C000475E5F4F0E946D000E942706A096E6E000
:1003D0000C94162BA0E2B0E0E0EFF1E00C94FA2AC6
:1003E00069837A838B839C832D833E834F835887D5
:1003F000F9E0EF2EF12CEC0EFD1ECE010196B701B7
:100400000E94FC068E010F5E1F4FCE010596B801BB
:100410000E94FC06C701B801AE01475E5F4F0E9413
:100420006D000E942706A096E6E00C94162BA0E231
:10043000B0E0EDE1F2E00C94EE2A69837A838B83DD
:100440009C832D833E834F835887CE010196BE0146
:10045000675F7F4F0E94FC06CE010596BE016F5E6E
:100460007F4F0E94FC069985923088F089898230FE
:10047000C8F0943019F4823051F404C0843029F467
:10048000923081F48FEA90E0C6C0923049F420E0C7
:100490009A858A89981321E02A87CE010996BBC0E4
:1004A000823049F420E09A858A89981321E02A8BCA
:1004B000CE014196B0C02D843E844F8458886D880B
:1004C0007E888F88988CEE24FF248701AA24BB2481
:1004D000650140E050E060E070E0E0E0F0E0C10184
:1004E00081709070892BE9F0E60CF71C081D191D2E
:1004F0009A01AB012A0D3B1D4C1D5D1D80E090E073
:10050000A0E0B0E0E614F7040805190520F481E046
:1005100090E0A0E0B0E0BA01A901480F591F6A1F9E
:100520007B1FAA0CBB1CCC1CDD1C97FE08C081E005
:1005300090E0A0E0B0E0A82AB92ACA2ADB2A3196C6
:10054000E032F10549F0660C771C881C991C569422
:10055000479437942794C3CFFA85EA892B893C893D
:100560008B859C85280F391F2E5F3F4F17C0CA010E
:1005700081709070892B61F016950795F794E79438
:1005800080E090E0A0E0B0E8E82AF92A0A2B1B2BD3
:1005900076956795579547952F5F3F4F77FDE7CF46
:1005A0000CC0440F551F661F771F17FD4160EE0CEE
:1005B000FF1C001F111F21503040403090E05907B0
:1005C00090E0690790E4790760F32B8F3C8FDB01A3
:1005D000CA018F779070A070B07080349105A1052A
:1005E000B10561F447FD0AC0E114F10401051105EC
:1005F00029F0405C5F4F6F4F7F4F40781A8EFE1797
:1006000011F081E08A8F4D8F5E8F6F8F78A383E02A
:10061000898FCE0149960E942706A096E2E10C94AC
:100620000A2BA8E1B0E0E7E1F3E00C94F62A698335
:100630007A838B839C832D833E834F835887B9E0D5
:10064000EB2EF12CEC0EFD1ECE010196B7010E949F
:10065000FC068E010F5E1F4FCE010596B8010E9469
:10066000FC062985223008F47EC03989323010F426
:10067000B8017CC08A859A8989278A87243011F03D
:10068000223031F4231709F06EC06FEA70E06EC0BB
:10069000343039F41D861E861F86188A1C861B86F8
:1006A00004C0323021F484E08987B7015FC02B8514
:1006B0003C858B899C89281B390B3C872B87ED84D3
:1006C000FE840F851889AD88BE88CF88D88CEA143F
:1006D000FB040C051D0540F4EE0CFF1C001F111F50
:1006E000215030403C872B8720E030E040E050E054
:1006F00080E090E0A0E0B0E460E070E0EA14FB0489
:100700000C051D0540F0282B392B4A2B5B2BEA18D2
:10071000FB080C091D09B695A79597958795EE0CD2
:10072000FF1C001F111F6F5F7F4F6F31710531F785
:10073000DA01C9018F779070A070B0708034910594
:10074000A105B10561F427FD0AC0E114F10401051A
:10075000110529F0205C3F4F4F4F5F4F20782D87C8
:100760003E874F87588BBE01675F7F4FCB010E944A
:1007700027066896EAE00C94122BA8E1B0E0E3ECBF
:10078000F3E00C94FA2A69837A838B839C832D830C
:100790003E834F83588789E0E82EF12CEC0EFD1E36
:1007A000CE010196B7010E94FC068E010F5E1F4F1D
:1007B000CE010596B8010E94FC068985823040F082
:1007C0008989823028F0C701B8010E94740701C0EE
:1007D00081E06896E6E00C94162BA8E1B0E0E3EF28
:1007E000F3E00C94FA2A69837A838B839C832D83AC
:1007F0003E834F83588789E0E82EF12CEC0EFD1ED6
:10080000CE010196B7010E94FC068E010F5E1F4FBC
:10081000CE010596B8010E94FC068985823040F021
:100820008989823028F0C701B8010E94740701C08D
:1008300081E06896E6E00C94162BA8E1B0E0E3E2D4
:10084000F4E00C94FA2A69837A838B839C832D834A
:100850003E834F83588789E0E82EF12CEC0EFD1E75
:10086000CE010196B7010E94FC068E010F5E1F4F5C
:10087000CE010596B8010E94FC068985823040F0C1
:100880008989823028F0C701B8010E94740701C02D
:100890008FEF6896E6E00C94162BA8E1B0E0E3E554
:1008A000F4E00C94FA2A69837A838B839C832D83EA
:1008B0003E834F83588789E0E82EF12CEC0EFD1E15
:1008C000CE010196B7010E94FC068E010F5E1F4FFC
:1008D000CE010596B8010E94FC068985823040F061
:1008E0008989823028F0C701B8010E94740701C0CD
:1008F0008FEF6896E6E00C94162BA8E1B0E0E3E8F1
:10090000F4E00C94FA2A69837A838B839C832D8389
:100910003E834F83588789E0E82EF12CEC0EFD1EB4
:10092000CE010196B7010E94FC068E010F5E1F4F9B
:10093000CE010596B8010E94FC068985823040F000
:100940008989823028F0C701B8010E94740701C06C
:1009500081E06896E6E00C94162BA8E0B0E0E3EBAB
:10096000F4E00C94F72A9B01AC0183E08983DA015F
:10097000C9018827B7FD83959927AA27BB27B82ED9
:10098000211531054105510519F482E089833AC0EA
:100990008823A9F0203080E0380780E0480780E80D
:1009A000580729F460E070E080E09FEC30C0EE244E
:1009B000FF248701E21AF30A040B150B02C0790128
:1009C0008A018EE1C82ED12CDC82CB82ED82FE82A0
:1009D0000F831887C801B7010E94D8050197181620
:1009E000190684F4082E04C0EE0CFF1C001F111F12
:1009F0000A94D2F7ED82FE820F831887C81AD90AAB
:100A0000DC82CB82BA82CE0101960E94270628960C
:100A1000E9E00C94132BACE0B0E0E1E1F5E00C94DC
:100A2000FE2A69837A838B839C83CE010196BE0163
:100A30006B5F7F4F0E94FC068D81823061F18230B6
:100A400050F1843021F48E81882351F12EC02F8102
:100A5000388537FD20C06E812F3131051CF06623AB
:100A6000F9F023C08EE190E0821B930B29853A8533
:100A70004B855C8504C056954795379527958A9593
:100A8000D2F76623B1F050954095309521953F4FB0
:100A90004F4F5F4F0EC020E030E040E050E009C013
:100AA0002FEF3FEF4FEF5FE704C020E030E040E082
:100AB00050E8B901CA012C96E2E00C941A2BA8E088
:100AC000B0E0E5E6F5E00C94F62A7B018C016115B7
:100AD00071058105910519F482E0898360C083E086
:100AE00089838EE1C82ED12CDC82CB82ED82FE82FE
:100AF0000F831887C801B7010E94D805FC01319700
:100B0000F7FF3BC0222733272E1B3F0B57016801FD
:100B1000022E04C0D694C794B794A7940A94D2F72F
:100B200040E050E060E070E081E090E0A0E0B0E004
:100B300004C0880F991FAA1FBB1F2A95D2F70197DF
:100B4000A109B1098E219F21A023B1230097A105FE
:100B5000B10521F041E050E060E070E04A295B29F6
:100B60006C297D294D835E836F8378878EE190E0C9
:100B70008E1B9F0B9C838B8312C0309781F00E2EAF
:100B800004C0EE0CFF1C001F111F0A94D2F7ED8267
:100B9000FE820F831887CE1ADF0ADC82CB821A828C
:100BA000CE0101960E9427062896EAE00C94122BAB
:100BB000EF92FF920F931F937B018C0180E0E81668
:100BC00080E0F80681E0080780E0180788F48FEFDE
:100BD000E816F1040105110531F028F088E090E0F5
:100BE000A0E0B0E017C080E090E0A0E0B0E012C06C
:100BF00080E0E81680E0F80680E0080781E018074A
:100C000028F088E190E0A0E0B0E004C080E190E04E
:100C1000A0E0B0E020E230E040E050E0281B390BDB
:100C20004A0B5B0B04C016950795F794E7948A95D9
:100C3000D2F7F701E954FF4F8081281B31094109A0
:100C40005109C9011F910F91FF90EF900895DF9214
:100C5000EF92FF920F931F93FC01E480F5800681D1
:100C60001781D1808081823048F480E090E0A0E15B
:100C7000B0E0E82AF92A0A2B1B2BA5C0843009F41E
:100C80009FC0823021F4EE24FF24870105C0E114C7
:100C9000F1040105110519F4E0E0F0E096C062816D
:100CA00073819FEF623879070CF05BC022E83FEF59
:100CB000261B370B2A3131052CF020E030E040E0D4
:100CC00050E02AC0B801A701022E04C076956795AE
:100CD000579547950A94D2F781E090E0A0E0B0E004
:100CE00004C0880F991FAA1FBB1F2A95D2F701972E
:100CF000A109B1098E219F21A023B1230097A1054D
:100D0000B10521F081E090E0A0E0B0E09A01AB01F4
:100D1000282B392B4A2B5B2BDA01C9018F77907076
:100D2000A070B07080349105A105B10539F427FF9A
:100D300009C0205C3F4F4F4F5F4F04C0215C3F4FC5
:100D40004F4F5F4FE0E0F0E02030A0E03A07A0E036
:100D50004A07A0E45A0710F0E1E0F0E079018A01C7
:100D600027C06038710564F5FB01E158FF4FD801D9
:100D7000C7018F779070A070B07080349105A10585
:100D8000B10539F4E7FE0DC080E490E0A0E0B0E0EA
:100D900004C08FE390E0A0E0B0E0E80EF91E0A1F67
:100DA0001B1F17FF05C016950795F794E79431961A
:100DB00087E016950795F794E7948A95D1F705C0D3
:100DC000EE24FF248701EFEFF0E06E2F6795662792
:100DD0006795902F9F77D794DD24D7948E2F869593
:100DE000492F462B582F5D29B701CA011F910F913A
:100DF000FF90EF90DF900895FC01DB01408151816D
:100E00002281622F6F7770E0221F2227221F938199
:100E1000892F880F822B282F30E0991F9927991F3F
:100E200011969C93119721153105A9F5411551058E
:100E30006105710511F482E037C082E89FEF1396D7
:100E40009C938E9312979A01AB0167E0220F331F98
:100E5000441F551F6A95D1F783E08C930DC0220F74
:100E6000331F441F551F12968D919C911397019724
:100E700013969C938E931297203080E0380780E081
:100E8000480780E4580758F314962D933D934D93EB
:100E90005C93179708952F3F310579F4411551055B
:100EA0006105710519F484E08C93089564FF03C013
:100EB00081E08C9312C01C9210C02F5730401396C3
:100EC0003C932E93129783E08C9387E0440F551F39
:100ED000661F771F8A95D1F7706414964D935D93C2
:100EE0006D937C93179708951F93DC01FB019C91F0
:100EF000923008F447C08081823008F443C09430B7
:100F000051F411961C91843099F58181682F70E01D
:100F1000611B71093FC0843021F0923031F482307E
:100F2000B9F18181882389F12DC011961C91119707
:100F30008230F1F081811817D9F412962D913C91ED
:100F40001397828193818217930794F028173907AA
:100F5000BCF014968D919D910D90BC91A02D248193
:100F6000358146815781281739074A075B0718F4EE
:100F7000112341F00AC082179307A407B50740F474
:100F8000112319F061E070E005C06FEF7FEF02C040
:100F900060E070E0CB011F9108950F931F93DF93E2
:100FA000CF93CDB7DEB7C256D0400FB6F894DEBFB0
:100FB0000FBECDBF80E061E041E00E94EA1780E013
:100FC00062E041E00E94EA17FE01E15AFF4F80E033
:100FD00090E0A0EAB1E480839183A283B3838E0181
:100FE000055A1F4FFE01E15AFF4F608171818281D6
:100FF000938120E030E04AE755E40E941702DC01CB
:10100000CB01F80180839183A283B383FE01E55A6B
:10101000FF4F608171818281938120E030E040E860
:101020005FE30E947D04882344F4FE01E75AFF4FEA
:1010300081E090E09183808364C0FE01E55AFF4F18
:10104000608171818281938120E03FEF4FE757E417
:101050000E941D0418160CF043C0FE01E15AFF4F18
:10106000608171818281938120E030E040E251E42F
:101070000E941702DC01CB018E01075A1F4FBC01F1
:10108000CD010E944100DC01CB01F80191838083F6
:101090001FC0FE01E95AFF4F80E991E091838083F0
:1010A000FE01E95AFF4F808191810197F1F7FE011E
:1010B000E95AFF4F91838083DE01A75ABF4FFE019B
:1010C000E75AFF4F80819181019711969C938E93EF
:1010D000FE01E75AFF4F808191810097D1F627C02A
:1010E0008E01075A1F4FFE01E55AFF4F6081718143
:1010F000828193810E944100DC01CB01F801918340
:101100008083DE01AB5ABF4FFE01E75AFF4F80815B
:1011100091818D939C93FE01EB5AFF4F80819181C9
:101120000197F1F7FE01EB5AFF4F9183808380E036
:1011300063E041E00E94EA1780E064E041E00E9441
:10114000EA1780E065E041E00E94EA1780E066E08F
:1011500041E00E94EA17FE01EF5AFF4F80E090E065
:10116000A0EFB1E480839183A283B3838E01035BFC
:101170001F4FFE01EF5AFF4F608171818281938181
:1011800020E030E04AE755E40E941702DC01CB0181
:10119000F80180839183A283B383FE01E35BFF4F59
:1011A000608171818281938120E030E040E85FE3DB
:1011B0000E947D04882344F4FE01E55BFF4F81E03B
:1011C00090E09183808364C0FE01E35BFF4F608108
:1011D00071818281938120E03FEF4FE757E40E94C5
:1011E0001D0418160CF043C0FE01EF5AFF4F60813A
:1011F00071818281938120E030E040E251E40E94DD
:101200001702DC01CB018E01055B1F4FBC01CD0134
:101210000E944100DC01CB01F801918380831FC053
:10122000FE01E75BFF4F80E991E091838083FE013F
:10123000E75BFF4F808191810197F1F7FE01E75B4A
:10124000FF4F91838083DE01A55BBF4FFE01E55B0D
:10125000FF4F80819181019711969C938E93FE019F
:10126000E55BFF4F808191810097D1F627C08E0109
:10127000055B1F4FFE01E35BFF4F6081718182813F
:1012800093810E944100DC01CB01F80191838083AE
:10129000DE01A95BBF4FFE01E55BFF4F80819181BD
:1012A0008D939C93FE01E95BFF4F808191810197B3
:1012B000F1F7FE01E95BFF4F9183808383E30E9496
:1012C000C90BFE01ED5BFF4F80E090E0A0E8BFE3BB
:1012D00080839183A283B3838E01015C1F4FFE0143
:1012E000ED5BFF4F608171818281938120E030E06E
:1012F0004AE755E40E941702DC01CB01F801808324
:101300009183A283B383FE01FF9660817181828104
:10131000938120E030E040E85FE30E947D04882371
:101320002CF481E090E09EAF8DAF46C0FE01FF96A9
:10133000608171818281938120E03FEF4FE757E424
:101340000E941D04181664F5FE01ED5BFF4F6081DD
:1013500071818281938120E030E040E251E40E947B
:101360001702DC01CB01BC01CD010E944100DC0170
:10137000CB019EAF8DAF0FC080E991E09CAF8BAFEA
:101380008BAD9CAD0197F1F79CAF8BAF8DAD9EAD52
:1013900001979EAF8DAF8DAD9EAD009769F716C0DA
:1013A000FE01FF9660817181828193810E944100DC
:1013B000DC01CB019EAF8DAF8DAD9EAD9AAF89AFF5
:1013C00089AD9AAD0197F1F79AAF89AF82E30E9498
:1013D000C90B80E090E0A0E8BFE38DAB9EABAFAB64
:1013E000B8AF6DA97EA98FA998AD20E030E04AE79B
:1013F00055E40E941702DC01CB0189AB9AABABAB81
:10140000BCAB69A97AA98BA99CA920E030E040E88F
:101410005FE30E947D0488232CF481E090E098AB88
:101420008FA73FC069A97AA98BA99CA920E03FEFAB
:101430004FE757E40E941D0418164CF56DA97EA9CC
:101440008FA998AD20E030E040E251E40E941702FD
:10145000DC01CB01BC01CD010E944100DC01CB01CC
:1014600098AB8FA70FC080E991E09EA78DA78DA5AF
:101470009EA50197F1F79EA78DA78FA598A9019723
:1014800098AB8FA78FA598A9009769F714C069A991
:101490007AA98BA99CA90E944100DC01CB0198ABE1
:1014A0008FA78FA598A99CA78BA78BA59CA5019713
:1014B000F1F79CA78BA788E20E94C90B80E090E01F
:1014C000A0E8BFE38FA398A7A9A7BAA76FA178A5A3
:1014D00089A59AA520E030E04AE755E40E9417026A
:1014E000DC01CB018BA39CA3ADA3BEA36BA17CA10C
:1014F0008DA19EA120E030E040E85FE30E947D04E2
:1015000088232CF481E090E09AA389A33FC06BA1CB
:101510007CA18DA19EA120E03FEF4FE757E40E9400
:101520001D0418164CF56FA178A589A59AA520E091
:1015300030E040E251E40E941702DC01CB01BC0123
:10154000CD010E944100DC01CB019AA389A30FC009
:1015500080E991E098A38F8F8F8D98A10197F1F783
:1015600098A38F8F89A19AA101979AA389A389A192
:101570009AA1009769F714C06BA17CA18DA19EA1CF
:101580000E944100DC01CB019AA389A389A19AA101
:101590009E8F8D8F8D8D9E8D0197F1F79E8F8D8FF4
:1015A0008CE00E94C90B80E090E0A0E8BFE3898F47
:1015B0009A8FAB8FBC8F698D7A8D8B8D9C8D20E03F
:1015C00030E04AE755E40E941702DC01CB018D8B25
:1015D0009E8BAF8BB88F6D897E898F89988D20E027
:1015E00030E040E85FE30E947D0488232CF481E032
:1015F00090E09C8B8B8B3FC06D897E898F89988D05
:1016000020E03FEF4FE757E40E941D0418164CF509
:10161000698D7A8D8B8D9C8D20E030E040E251E425
:101620000E941702DC01CB01BC01CD010E944100E8
:10163000DC01CB019C8B8B8B0FC080E991E09A8BF6
:10164000898B89899A890197F1F79A8B898B8B8984
:101650009C8901979C8B8B8B8B899C89009769F760
:1016600014C06D897E898F89988D0E944100DC01AC
:10167000CB019C8B8B8B8B899C89988B8F878F85DB
:1016800098890197F1F7988B8F8781E00E94C90BA9
:1016900080E090E0A0E0B0E48B879C87AD87BE87B8
:1016A0006B857C858D859E8520E030E04AE755E49A
:1016B0000E941702DC01CB018F839887A987BA8724
:1016C0006F81788589859A8520E030E040E85FE386
:1016D0000E947D0488232CF481E090E09E838D831A
:1016E0003FC06F81788589859A8520E03FEF4FE77D
:1016F00057E40E941D0418164CF56B857C858D857A
:101700009E8520E030E040E251E40E941702DC01B7
:10171000CB01BC01CD010E944100DC01CB019E83C5
:101720008D830FC080E991E09C838B838B819C81AA
:101730000197F1F79C838B838D819E8101979E8316
:101740008D838D819E81009769F714C06F817885A4
:1017500089859A850E944100DC01CB019E838D839F
:101760008D819E819A83898389819A810197F1F77E
:101770009A83898386E00E94C90BCE59DF4F0FB64A
:10178000F894DEBF0FBECDBFCF91DF911F910F91B7
:1017900008950F931F93DF93CF93CDB7DEB7C55551
:1017A000D0400FB6F894DEBF0FBECDBFFE01EB5A9E
:1017B000FF4F808380E061E040E00E94D518FE0189
:1017C000EF5AFF4F80E090E0A0E8BFE38083918371
:1017D000A283B3838E01035B1F4FFE01EF5AFF4FBD
:1017E000608171818281938120E030E04AE755E495
:1017F0000E941702DC01CB01F80180839183A28350
:10180000B383FE01E35BFF4F60817181828193812D
:1018100020E030E040E85FE30E947D04882344F448
:10182000FE01E55BFF4F81E090E09183808364C01F
:10183000FE01E35BFF4F608171818281938120E033
:101840003FEF4FE757E40E941D0418160CF043C009
:10185000FE01EF5AFF4F608171818281938120E008
:1018600030E040E251E40E941702DC01CB018E011E
:10187000055B1F4FBC01CD010E944100DC01CB0183
:10188000F801918380831FC0FE01E75BFF4F80E971
:1018900091E091838083FE01E75BFF4F808191811E
:1018A0000197F1F7FE01E75BFF4F91838083DE0133
:1018B000A55BBF4FFE01E55BFF4F808191810197E2
:1018C00011969C938E93FE01E55BFF4F8081918181
:1018D0000097D1F627C08E01055B1F4FFE01E35B29
:1018E000FF4F60817181828193810E944100DC0100
:1018F000CB01F80191838083DE01A95BBF4FFE011C
:10190000E55BFF4F808191818D939C93FE01E95BA4
:10191000FF4F808191810197F1F7FE01E95BFF4F55
:101920009183808380E062E041E00E94D518FE014F
:10193000ED5BFF4F80E090E0A0E8BFE38083918300
:10194000A283B3838E01015C1F4FFE01ED5BFF4F4D
:10195000608171818281938120E030E04AE755E423
:101960000E941702DC01CB01F80180839183A283DE
:10197000B383FE01FF96608171818281938120E0B3
:1019800030E040E85FE30E947D0488232CF481E08E
:1019900090E09EAF8DAF46C0FE01FF9660817181E1
:1019A0008281938120E03FEF4FE757E40E941D04BE
:1019B000181664F5FE01ED5BFF4F60817181828135
:1019C000938120E030E040E251E40E941702DC0104
:1019D000CB01BC01CD010E944100DC01CB019EAFD7
:1019E0008DAF0FC080E991E09CAF8BAF8BAD9CAD0C
:1019F0000197F1F79CAF8BAF8DAD9EAD01979EAF78
:101A00008DAF8DAD9EAD009769F716C0FE01FF96B4
:101A100060817181828193810E944100DC01CB0150
:101A20009EAF8DAF8DAD9EAD9AAF89AF89AD9AADAA
:101A30000197F1F79AAF89AFFE01EB5AFF4F808112
:101A4000882F90E0807190709595879595958795F2
:101A50009595879595958795982F80E063E0492F18
:101A60000E94D518FE01EB5AFF4F8081882F90E02D
:101A700080729070959587959595879595958795A2
:101A80009595879595958795982F80E064E0492FE7
:101A90000E94D518FE01EB5AFF4F8081882F90E0FD
:101AA00080749070082E892F000C881F990B000CF1
:101AB000881F991F982F80E065E0492F0E94D51854
:101AC000FE01EB5AFF4F8081982F991F9927991F8C
:101AD00080E066E0492F0E94D51880E090E0A0E801
:101AE000BFE38DAB9EABAFABB8AF6DA97EA98FA99D
:101AF00098AD20E030E04AE755E40E941702DC018F
:101B0000CB0189AB9AABABABBCAB69A97AA98BA96A
:101B10009CA920E030E040E85FE30E947D04882338
:101B20002CF481E090E098AB8FA73FC069A97AA917
:101B30008BA99CA920E03FEF4FE757E40E941D04CA
:101B400018164CF56DA97EA98FA998AD20E030E05C
:101B500040E251E40E941702DC01CB01BC01CD013F
:101B60000E944100DC01CB0198AB8FA70FC080E938
:101B700091E09EA78DA78DA59EA50197F1F79EA741
:101B80008DA78FA598A9019798AB8FA78FA598A926
:101B9000009769F714C069A97AA98BA99CA90E942A
:101BA0004100DC01CB0198AB8FA78FA598A99CA71A
:101BB0008BA78BA59CA50197F1F79CA78BA780E02D
:101BC00062E040E00E94D51880E090E0A0E8BFE32A
:101BD0008FA398A7A9A7BAA76FA178A589A59AA549
:101BE00020E030E04AE755E40E941702DC01CB0117
:101BF0008BA39CA3ADA3BEA36BA17CA18DA19EA131
:101C000020E030E040E85FE30E947D0488232CF46C
:101C100081E090E09AA389A33FC06BA17CA18DA134
:101C20009EA120E03FEF4FE757E40E941D041816E5
:101C30004CF56FA178A589A59AA520E030E040E297
:101C400051E40E941702DC01CB01BC01CD010E94CE
:101C50004100DC01CB019AA389A30FC080E991E088
:101C600098A38F8F8F8D98A10197F1F798A38F8FED
:101C700089A19AA101979AA389A389A19AA1009702
:101C800069F714C06BA17CA18DA19EA10E944100A7
:101C9000DC01CB019AA389A389A19AA19E8F8D8F84
:101CA0008D8D9E8D0197F1F79E8F8D8F80E062E084
:101CB00041E00E94D51880E090E0A0E8BFE3898F62
:101CC0009A8FAB8FBC8F698D7A8D8B8D9C8D20E028
:101CD00030E04AE755E40E941702DC01CB018D8B0E
:101CE0009E8BAF8BB88F6D897E898F89988D20E010
:101CF00030E040E85FE30E947D0488232CF481E01B
:101D000090E09C8B8B8B3FC06D897E898F89988DED
:101D100020E03FEF4FE757E40E941D0418164CF5F2
:101D2000698D7A8D8B8D9C8D20E030E040E251E40E
:101D30000E941702DC01CB01BC01CD010E944100D1
:101D4000DC01CB019C8B8B8B0FC080E991E09A8BDF
:101D5000898B89899A890197F1F79A8B898B8B896D
:101D60009C8901979C8B8B8B8B899C89009769F749
:101D700014C06D897E898F89988D0E944100DC0195
:101D8000CB019C8B8B8B8B899C89988B8F878F85C4
:101D900098890197F1F7988B8F87FE01EB5AFF4FD7
:101DA0008081982F917080E063E0492F0E94D518C0
:101DB000FE01EB5AFF4F8081882F90E08270907077
:101DC00095958795982F80E064E0492F0E94D5185B
:101DD000FE01EB5AFF4F8081882F90E08470907055
:101DE0009595879595958795982F80E065E0492F83
:101DF0000E94D518FE01EB5AFF4F8081882F90E09A
:101E00008870907095958795959587959595879508
:101E1000982F80E066E0492F0E94D51880E090E07E
:101E2000A0E8BFE38B879C87AD87BE876B857C85E9
:101E30008D859E8520E030E04AE755E40E94170238
:101E4000DC01CB018F839887A987BA876F8178855A
:101E500089859A8520E030E040E85FE30E947D04B8
:101E600088232CF481E090E09E838D833FC06F81B6
:101E7000788589859A8520E03FEF4FE757E40E94F7
:101E80001D0418164CF56B857C858D859E8520E09C
:101E900030E040E251E40E941702DC01CB01BC01BA
:101EA000CD010E944100DC01CB019E838D830FC0D8
:101EB00080E991E09C838B838B819C810197F1F772
:101EC0009C838B838D819E8101979E838D838D81E1
:101ED0009E81009769F714C06F81788589859A85FE
:101EE0000E944100DC01CB019E838D838D819E8108
:101EF0009A83898389819A810197F1F79A838983EB
:101F000080E062E040E00E94D518CB5ADF4F0FB668
:101F1000F894DEBF0FBECDBFCF91DF911F910F911F
:101F200008950F931F93DF93CF93CDB7DEB7C555B9
:101F3000D0400FB6F894DEBF0FBECDBFFE01EB5A06
:101F4000FF4F808380E061E041E00E94D518FE01F0
:101F5000EF5AFF4F80E090E0A0E8BFE380839183D9
:101F6000A283B3838E01035B1F4FFE01EF5AFF4F25
:101F7000608171818281938120E030E04AE755E4FD
:101F80000E941702DC01CB01F80180839183A283B8
:101F9000B383FE01E35BFF4F608171818281938196
:101FA00020E030E040E85FE30E947D04882344F4B1
:101FB000FE01E55BFF4F81E090E09183808364C088
:101FC000FE01E35BFF4F608171818281938120E09C
:101FD0003FEF4FE757E40E941D0418160CF043C072
:101FE000FE01EF5AFF4F608171818281938120E071
:101FF00030E040E251E40E941702DC01CB018E0187
:10200000055B1F4FBC01CD010E944100DC01CB01EB
:10201000F801918380831FC0FE01E75BFF4F80E9D9
:1020200091E091838083FE01E75BFF4F8081918186
:102030000197F1F7FE01E75BFF4F91838083DE019B
:10204000A55BBF4FFE01E55BFF4F8081918101974A
:1020500011969C938E93FE01E55BFF4F80819181E9
:102060000097D1F627C08E01055B1F4FFE01E35B91
:10207000FF4F60817181828193810E944100DC0168
:10208000CB01F80191838083DE01A95BBF4FFE0184
:10209000E55BFF4F808191818D939C93FE01E95B0D
:1020A000FF4F808191810197F1F7FE01E95BFF4FBE
:1020B0009183808380E062E041E00E94D518FE01B8
:1020C000ED5BFF4F80E090E0A0E8BFE38083918369
:1020D000A283B3838E01015C1F4FFE01ED5BFF4FB6
:1020E000608171818281938120E030E04AE755E48C
:1020F0000E941702DC01CB01F80180839183A28347
:10210000B383FE01FF96608171818281938120E01B
:1021100030E040E85FE30E947D0488232CF481E0F6
:1021200090E09EAF8DAF46C0FE01FF966081718149
:102130008281938120E03FEF4FE757E40E941D0426
:10214000181664F5FE01ED5BFF4F6081718182819D
:10215000938120E030E040E251E40E941702DC016C
:10216000CB01BC01CD010E944100DC01CB019EAF3F
:102170008DAF0FC080E991E09CAF8BAF8BAD9CAD74
:102180000197F1F79CAF8BAF8DAD9EAD01979EAFE0
:102190008DAF8DAD9EAD009769F716C0FE01FF961D
:1021A00060817181828193810E944100DC01CB01B9
:1021B0009EAF8DAF8DAD9EAD9AAF89AF89AD9AAD13
:1021C0000197F1F79AAF89AFFE01EB5AFF4F80817B
:1021D000882F90E08071907095958795959587955B
:1021E0009595879595958795982F80E063E0492F81
:1021F0000E94D518FE01EB5AFF4F8081882F90E096
:10220000807290709595879595958795959587950A
:102210009595879595958795982F80E064E0492F4F
:102220000E94D518FE01EB5AFF4F8081882F90E065
:1022300080749070082E892F000C881F990B000C59
:10224000881F991F982F80E065E0492F0E94D518BC
:10225000FE01EB5AFF4F8081982F991F9927991FF4
:1022600080E066E0492F0E94D51880E090E0A0E869
:10227000BFE38DAB9EABAFABB8AF6DA97EA98FA905
:1022800098AD20E030E04AE755E40E941702DC01F7
:10229000CB0189AB9AABABABBCAB69A97AA98BA9D3
:1022A0009CA920E030E040E85FE30E947D048823A1
:1022B0002CF481E090E098AB8FA73FC069A97AA980
:1022C0008BA99CA920E03FEF4FE757E40E941D0433
:1022D00018164CF56DA97EA98FA998AD20E030E0C5
:1022E00040E251E40E941702DC01CB01BC01CD01A8
:1022F0000E944100DC01CB0198AB8FA70FC080E9A1
:1023000091E09EA78DA78DA59EA50197F1F79EA7A9
:102310008DA78FA598A9019798AB8FA78FA598A98E
:10232000009769F714C069A97AA98BA99CA90E9492
:102330004100DC01CB0198AB8FA78FA598A99CA782
:102340008BA78BA59CA50197F1F79CA78BA780E095
:1023500062E040E00E94D51880E090E0A0E8BFE392
:102360008FA398A7A9A7BAA76FA178A589A59AA5B1
:1023700020E030E04AE755E40E941702DC01CB017F
:102380008BA39CA3ADA3BEA36BA17CA18DA19EA199
:1023900020E030E040E85FE30E947D0488232CF4D5
:1023A00081E090E09AA389A33FC06BA17CA18DA19D
:1023B0009EA120E03FEF4FE757E40E941D0418164E
:1023C0004CF56FA178A589A59AA520E030E040E200
:1023D00051E40E941702DC01CB01BC01CD010E9437
:1023E0004100DC01CB019AA389A30FC080E991E0F1
:1023F00098A38F8F8F8D98A10197F1F798A38F8F56
:1024000089A19AA101979AA389A389A19AA100976A
:1024100069F714C06BA17CA18DA19EA10E9441000F
:10242000DC01CB019AA389A389A19AA19E8F8D8FEC
:102430008D8D9E8D0197F1F79E8F8D8F80E062E0EC
:1024400041E00E94D51880E090E0A0E8BFE3898FCA
:102450009A8FAB8FBC8F698D7A8D8B8D9C8D20E090
:1024600030E04AE755E40E941702DC01CB018D8B76
:102470009E8BAF8BB88F6D897E898F89988D20E078
:1024800030E040E85FE30E947D0488232CF481E083
:1024900090E09C8B8B8B3FC06D897E898F89988D56
:1024A00020E03FEF4FE757E40E941D0418164CF55B
:1024B000698D7A8D8B8D9C8D20E030E040E251E477
:1024C0000E941702DC01CB01BC01CD010E9441003A
:1024D000DC01CB019C8B8B8B0FC080E991E09A8B48
:1024E000898B89899A890197F1F79A8B898B8B89D6
:1024F0009C8901979C8B8B8B8B899C89009769F7B2
:1025000014C06D897E898F89988D0E944100DC01FD
:10251000CB019C8B8B8B8B899C89988B8F878F852C
:1025200098890197F1F7988B8F87FE01EB5AFF4F3F
:102530008081982F917080E063E0492F0E94D51828
:10254000FE01EB5AFF4F8081882F90E082709070DF
:1025500095958795982F80E064E0492F0E94D518C3
:10256000FE01EB5AFF4F8081882F90E084709070BD
:102570009595879595958795982F80E065E0492FEB
:102580000E94D518FE01EB5AFF4F8081882F90E002
:102590008870907095958795959587959595879571
:1025A000982F80E066E0492F0E94D51880E090E0E7
:1025B000A0E8BFE38B879C87AD87BE876B857C8552
:1025C0008D859E8520E030E04AE755E40E941702A1
:1025D000DC01CB018F839887A987BA876F817885C3
:1025E00089859A8520E030E040E85FE30E947D0421
:1025F00088232CF481E090E09E838D833FC06F811F
:10260000788589859A8520E03FEF4FE757E40E945F
:102610001D0418164CF56B857C858D859E8520E004
:1026200030E040E251E40E941702DC01CB01BC0122
:10263000CD010E944100DC01CB019E838D830FC040
:1026400080E991E09C838B838B819C810197F1F7DA
:102650009C838B838D819E8101979E838D838D8149
:102660009E81009769F714C06F81788589859A8566
:102670000E944100DC01CB019E838D838D819E8170
:102680009A83898389819A810197F1F79A83898353
:1026900080E062E040E00E94D518CB5ADF4F0FB6D1
:1026A000F894DEBF0FBECDBFCF91DF911F910F9188
:1026B0000895DF93CF9300D00F92CDB7DEB79B8301
:1026C0008A8319820EC08981282F30E08A819B81FC
:1026D000FC01E20FF31F80810E94910F89818F5FBF
:1026E00089838981282F30E08A819B81FC01E20F58
:1026F000F31F8081882339F70F900F900F90CF91AF
:10270000DF910895DF93CF93CDB7DEB781E00E94CC
:10271000C90BCF91DF910895DF93CF9300D000D004
:102720000F92CDB7DEB78A836B838A81282F30E082
:102730003D832C838C819D8181309105C1F02C815A
:102740003D81223031052CF48C819D81009761F010
:1027500019C02C813D812230310569F08C819D8129
:102760008330910561F00EC08B8189830BC08B8112
:10277000805C898307C08B81805F898303C08B81E4
:10278000805B8983898180680E94C90B0F900F90BC
:102790000F900F900F90CF91DF910895DF93CF931B
:1027A000CDB7DEB72A970FB6F894DEBF0FBECDBF08
:1027B0006F83788789879A878F819885A985BA855D
:1027C000BB2394F48DE20E94910F8F819885A98597
:1027D000BA85B095A095909581959F4FAF4FBF4F0B
:1027E0008F839887A987BA878F819885A985BA85AD
:1027F00024E630E040E050E0BC01CD010E947E2A9A
:10280000DC01CB0124E630E040E050E0BC01CD012A
:102810000E94B12ADC01CB010097A105B10541F16D
:102820008F819885A985BA85BC01CD010E94CE1300
:102830008EE20E94910F8F819885A985BA8524E642
:1028400030E040E050E0BC01CD010E947E2ADC0176
:10285000CB0124E630E040E050E0BC01CD010E9415
:10286000B12ADC01CB01BC01CD010E94CE1389C08D
:102870008F819885A985BA858B839C83AD83BE8320
:1028800081E090E09A8389838F819885A985BA85B4
:102890008A309105A105B1052CF58F81805D0E94DC
:1028A000910F6FC08F819885A985BA852AE030E0A5
:1028B00040E050E0BC01CD010E94B12ADA01C9011B
:1028C0008F839887A987BA8789819A819C01220F73
:1028D000331FC901880F991F880F991F820F931FFB
:1028E0009A8389838F819885A985BA858A309105D5
:1028F000A105B105BCF640C08B819C81AD81BE8134
:102900008F839887A987BA8789819A819C0140E043
:1029100050E08F819885A985BA85BC01CD010E94C0
:10292000B12ADC01CB018B839C83AD83BE8389817B
:102930009A819C0140E050E08F819885A985BA85F5
:10294000BC01CD010E94B12ADA01C9018F839887A9
:10295000A987BA8789819A812AE030E0B9010E946B
:102960009D2ACB019A8389838F819885A985BA8511
:10297000BC01CD010E94CE1389819A81009709F094
:10298000BBCF2A960FB6F894DEBF0FBECDBFCF9156
:10299000DF910895EF92FF920F931F93DF93CF93F0
:1029A000CDB7DEB72A970FB6F894DEBF0FBECDBF06
:1029B0006F83788789879A876F81788589859A85DB
:1029C00020E030E040E050E00E947D04882364F481
:1029D0008DE20E94910F8F819885A985BA85B058A4
:1029E0008F839887A987BA876F81788589859A852B
:1029F00020E030E048EC52E40E941702DC01CB01F9
:102A0000BC01CD010E940B05DC01CB0124E630E0C6
:102A100040E050E0BC01CD010E94B12ADC01CB01B5
:102A20000097A105B105E1F16F81788589859A85C7
:102A30000E940B05DC01CB01BC01CD010E94AD045D
:102A4000DC01CB01BC01CD010E94CA148EE20E94C0
:102A5000910F6F81788589859A8520E030E048EC78
:102A600052E40E941702DC01CB01BC01CD010E949F
:102A70000B05DC01CB0124E630E040E050E0BC0176
:102A8000CD010E94B12ADC01CB01BC01CD010E9425
:102A9000AD04DC01CB01BC01CD010E94CA14AFC062
:102AA0008F819885A985BA858B839C83AD83BE83EE
:102AB00081E090E09A8389836F81788589859A8502
:102AC00020E030E040E251E40E947D0488239CF540
:102AD0006F81788589859A8520E030E040E452E472
:102AE0000E94EA01DC01CB01BC01CD010E94410042
:102AF000DC01CB010E94910F82C06F8178858985AE
:102B00009A8520E030E040E251E40E941103DC01AC
:102B1000CB018F839887A987BA8789819A819C0185
:102B2000220F331FC901880F991F880F991F820F29
:102B3000931F9A8389836F81788589859A8520E0A0
:102B400030E040E251E40E944D048823B4F652C0C4
:102B50008B819C81AD81BE818F839887A987BA873D
:102B60006F81788589859A850E940B057B018C0190
:102B700089819A819C0140E050E0C801B7010E9420
:102B8000B12ADC01CB01BC01CD010E94AD04DC0106
:102B9000CB018B839C83AD83BE8389819A81CC01D9
:102BA000A0E0B0E0BC01CD010E945F059B01AC013B
:102BB0006F81788589859A850E941103DC01CB019C
:102BC0008F839887A987BA8789819A812AE030E024
:102BD000B9010E949D2ACB019A8389836F817885F0
:102BE00089859A850E940B05DC01CB01BC01CD01D2
:102BF0000E94CE1389819A81009709F0A9CF2A9665
:102C00000FB6F894DEBF0FBECDBFCF91DF911F91FD
:102C10000F91FF90EF900895DF93CF9300D00F9224
:102C2000CDB7DEB79A8389836B838B81882F90E041
:102C30000896880F991F880F991F880F991F0E9467
:102C4000C90B1B820EC08B81282F30E089819A81AD
:102C5000FC01E20FF31F80810E94910F8B818F5F37
:102C60008B838B81883078F380E80E94C90B0F90AA
:102C70000F900F90CF91DF910895DF93CF930F9234
:102C8000CDB7DEB789838981883018F489810E94A5
:102C9000910F0F90CF91DF910895DF93CF93CDB730
:102CA000DEB760970FB6F894DEBF0FBECDBF81E0F0
:102CB00064E040E00E94EA1781E065E040E00E94A5
:102CC000EA1781E066E040E00E94EA1781E067E0F1
:102CD00040E00E94EA1783E062E040E00E94EA17C9
:102CE00083E063E040E00E94EA1783E064E040E0B4
:102CF0000E94EA1783E065E040E00E94EA171F8621
:102D0000BDC08F85982F9C5F81E0692F41E00E94B4
:102D1000EA178F85982F9C5F81E0692F40E00E9421
:102D2000D518188A2BC08889982F9E5F83E0692F59
:102D30000E94C0198823F9F48889982F9E5F83E048
:102D4000692F0E94C0198823B9F38F85882F90E0DE
:102D5000880F991F880F991F982F8889890F8F5F77
:102D60000E94431760960FB6F894DEBF0FBECDBF2A
:102D7000CF91DF91089588898F5F888B888984300F
:102D800090F28F85982F9C5F81E0692F40E00E9430
:102D9000EA1780E090E0A0EAB0E48B879C87AD87DB
:102DA000BE876B857C858D859E8520E030E04AE777
:102DB00055E40E941702DC01CB018F839887A98715
:102DC000BA876F81788589859A8520E030E040E870
:102DD0005FE30E947D0488232CF481E090E09E83D1
:102DE0008D833FC06F81788589859A8520E03FEF8C
:102DF0004FE757E40E941D0418164CF56B857C853F
:102E00008D859E8520E030E040E251E40E9417026B
:102E1000DC01CB01BC01CD010E944100DC01CB01F2
:102E20009E838D830FC080E991E09C838B838B818F
:102E30009C810197F1F79C838B838D819E81019703
:102E40009E838D838D819E81009769F714C06F8169
:102E5000788589859A850E944100DC01CB019E839B
:102E60008D838D819E819A83898389819A8101973F
:102E7000F1F79A8389838F858F5F8F878F85843061
:102E800008F43FCF3CCFDF93CF9300D000D0CDB735
:102E9000DEB78A8319828A81282F30E03C832B8316
:102EA0008B819C818830910509F470C02B813C8115
:102EB000293031055CF58B819C818430910509F4C2
:102EC00059C02B813C81253031059CF48B819C813C
:102ED0008230910509F448C02B813C8123303105B3
:102EE0000CF045C08B819C818130910509F439C07B
:102EF00067C02B813C812630310509F441C08B81AC
:102F00009C81873091050CF03EC037C02B813C81FD
:102F10002C30310509F446C08B819C818D309105A0
:102F20005CF42B813C812A303105B1F18B819C818D
:102F30008B309105A4F52DC02B813C812E303105BD
:102F4000B9F18B819C818E3091057CF12B813C8184
:102F50002F30310579F18B819C818031910569F1A8
:102F60002FC087E089832EC088E089832BC089E049
:102F7000898328C08FE2898325C084E0898322C0A9
:102F800085E089831FC086E089831CC08AE289832B
:102F900019C081E0898316C082E0898313C083E071
:102FA000898310C08DE289830DC08DE089830AC0BA
:102FB000198208C08DE3898305C08BE2898302C032
:102FC0008A81898389810F900F900F900F90CF9104
:102FD000DF910895DF93CF9300D000D00F92CDB74B
:102FE000DEB789836A834B838A81883008F0D5C035
:102FF0008981843008F0D1C08981282F30E03D8359
:103000002C838C819D818130910509F443C02C81F2
:103010003D81223031052CF48C819D81009771F027
:10302000BCC02C813D812230310509F45FC08C8108
:103030009D818330910509F485C0AFC08B818130BB
:10304000A1F4AAE3B0E0EAE3F0E08081482F8A81AE
:10305000282F30E081E090E0022E02C0880F991FF7
:103060000A94E2F7842B8C9398C0AAE3B0E0EAE3D9
:10307000F0E08081482F8A81282F30E081E090E0C5
:10308000022E02C0880F991F0A94E2F780958423CC
:103090008C9383C08B818130A1F4A7E3B0E0E7E398
:1030A000F0E08081482F8A81282F30E081E090E095
:1030B000022E02C0880F991F0A94E2F7842B8C938A
:1030C0006CC0A7E3B0E0E7E3F0E08081482F8A819D
:1030D000282F30E081E090E0022E02C0880F991F77
:1030E0000A94E2F7809584238C9357C08B818130BA
:1030F000A1F4A4E3B0E0E4E3F0E08081482F8A810A
:10310000282F30E081E090E0022E02C0880F991F46
:103110000A94E2F7842B8C9340C0A4E3B0E0E4E38C
:10312000F0E08081482F8A81282F30E081E090E014
:10313000022E02C0880F991F0A94E2F7809584231B
:103140008C932BC08B818130A1F4A1E3B0E0E1E34B
:10315000F0E08081482F8A81282F30E081E090E0E4
:10316000022E02C0880F991F0A94E2F7842B8C93D9
:1031700014C0A1E3B0E0E1E3F0E08081482F8A8150
:10318000282F30E081E090E0022E02C0880F991FC6
:103190000A94E2F7809584238C930F900F900F9000
:1031A0000F900F90CF91DF910895DF93CF9300D0D0
:1031B00000D00F92CDB7DEB789836A834B838A81B3
:1031C000883008F0D5C08981843008F0D1C0898169
:1031D000282F30E03D832C838C819D8181309105A7
:1031E00009F443C02C813D81223031052CF48C81BF
:1031F0009D81009771F0BCC02C813D81223031054A
:1032000009F45FC08C819D818330910509F485C0EC
:10321000AFC08B818130A1F4ABE3B0E0EBE3F0E031
:103220008081482F8A81282F30E081E090E0022EB3
:1032300002C0880F991F0A94E2F7842B8C9398C0E0
:10324000ABE3B0E0EBE3F0E08081482F8A81282FE8
:1032500030E081E090E0022E02C0880F991F0A94AE
:10326000E2F7809584238C9383C08B818130A1F415
:10327000A8E3B0E0E8E3F0E08081482F8A81282FBE
:1032800030E081E090E0022E02C0880F991F0A947E
:10329000E2F7842B8C936CC0A8E3B0E0E8E3F0E0A5
:1032A0008081482F8A81282F30E081E090E0022E33
:1032B00002C0880F991F0A94E2F7809584238C93AB
:1032C00057C08B818130A1F4A5E3B0E0E5E3F0E0E5
:1032D0008081482F8A81282F30E081E090E0022E03
:1032E00002C0880F991F0A94E2F7842B8C9340C088
:1032F000A5E3B0E0E5E3F0E08081482F8A81282F44
:1033000030E081E090E0022E02C0880F991F0A94FD
:10331000E2F7809584238C932BC08B818130A1F4BC
:10332000A2E3B0E0E2E3F0E08081482F8A81282F19
:1033300030E081E090E0022E02C0880F991F0A94CD
:10334000E2F7842B8C9314C0A2E3B0E0E2E3F0E058
:103350008081482F8A81282F30E081E090E0022E82
:1033600002C0880F991F0A94E2F7809584238C93FA
:103370000F900F900F900F900F90CF91DF910895C5
:10338000DF93CF9300D000D00F92CDB7DEB78A8302
:103390006B8319828B81883008F084C08A818430E5
:1033A00008F080C08A81282F30E03D832C834C8137
:1033B0005D814130510579F18C819D81823091058B
:1033C00034F42C813D812115310569F06BC04C81AD
:1033D0005D8142305105B9F18C819D818330910529
:1033E00009F449C05FC0E9E3F0E08081282F30E0B4
:1033F0008B81882F90E0A90102C0559547958A9549
:10340000E2F7CA0181709070882319F081E0898306
:1034100049C0198247C0E6E3F0E08081282F30E000
:103420008B81882F90E0A90102C0559547958A9518
:10343000E2F7CA0181709070882319F081E08983D6
:1034400031C019822FC0E3E3F0E08081282F30E003
:103450008B81882F90E0A90102C0559547958A95E8
:10346000E2F7CA0181709070882319F081E08983A6
:1034700019C0198217C0E0E3F0E08081282F30E006
:103480008B81882F90E0A90102C0559547958A95B8
:10349000E2F7CA0181709070882319F081E0898376
:1034A00001C0198289810F900F900F900F900F909B
:1034B000CF91DF910895DF93CF9300D000D0CDB7A7
:1034C000DEB789836A838981843090F58981282FCA
:1034D00030E03C832B838B819C8181309105D1F03E
:1034E0002B813C81223031052CF48B819C8100970B
:1034F00061F01EC02B813C812230310581F08B812F
:103500009C818330910581F013C0EAE3F0E08A8169
:1035100080830EC0E7E3F0E08A81808309C0E4E3A2
:10352000F0E08A81808304C0E1E3F0E08A81808357
:103530000F900F900F900F90CF91DF910895DF9330
:10354000CF9300D000D0CDB7DEB789836A8389815D
:10355000843090F58981282F30E03C832B838B8148
:103560009C8181309105D1F02B813C812230310545
:103570002CF48B819C81009761F01EC02B813C81D3
:103580002230310581F08B819C818330910581F05F
:1035900013C0EBE3F0E08A8180830EC0E8E3F0E043
:1035A0008A81808309C0E5E3F0E08A81808304C0DA
:1035B000E2E3F0E08A8180830F900F900F900F90EC
:1035C000CF91DF910895DF93CF9300D000D0CDB796
:1035D000DEB78A8319828A81843090F58A81282F08
:1035E00030E03C832B838B819C8181309105D1F02D
:1035F0002B813C81223031052CF48B819C810097FA
:1036000061F01EC02B813C812230310581F08B811D
:103610009C818330910581F013C0E9E3F0E0808163
:1036200089830EC0E6E3F0E08081898309C0E3E38B
:10363000F0E08081898304C0E0E3F0E08081898349
:1036400089810F900F900F900F90CF91DF91089587
:103650000F931F93DF93CF93CDB7DEB72F970FB69E
:10366000F894DEBF0FBECDBF6D837E838F839887B6
:1036700049870A871B872C873D878985282F30E05B
:103680003F872E878E859F858B329105B1F02E85E1
:103690003F852C32310534F48E859F858A32910521
:1036A000E9F04FC02E853F852D32310541F18E85E1
:1036B0009F858F329105A1F144C06D817E818F81FC
:1036C00098852A853B854C855D850E94EA01DC0151
:1036D000CB0189839A83AB83BC833BC06D817E81A0
:1036E0008F8198852A853B854C855D850E941702D0
:1036F000DC01CB0189839A83AB83BC832AC06D81B3
:103700007E818F8198852A853B854C855D850E94C9
:10371000B901DC01CB0189839A83AB83BC8319C0D7
:103720006D817E818F8198852A853B854C855D855D
:103730000E941103DC01CB0189839A83AB83BC8394
:1037400008C080E090E0AAE8B2E489839A83AB8362
:10375000BC8389819A81AB81BC81BC01CD012F964C
:103760000FB6F894DEBF0FBECDBFCF91DF911F9192
:103770000F9108950F931F93DF93CF93CDB7DEB7CB
:10378000C256D0400FB6F894DEBF0FBECDBF82E068
:1037900065E041E00E94D518FE01E15AFF4F80E04C
:1037A00090E0A8E4B2E480839183A283B3838E0186
:1037B000055A1F4FFE01E15AFF4F608171818281DE
:1037C000938120E030E04AE755E40E941702DC01D3
:1037D000CB01F80180839183A283B383FE01E55A74
:1037E000FF4F608171818281938120E030E040E869
:1037F0005FE30E947D04882344F4FE01E75AFF4FF3
:1038000081E090E09183808364C0FE01E55AFF4F20
:10381000608171818281938120E03FEF4FE757E41F
:103820000E941D0418160CF043C0FE01E15AFF4F20
:10383000608171818281938120E030E040E251E437
:103840000E941702DC01CB018E01075A1F4FBC01F9
:10385000CD010E944100DC01CB01F80191838083FE
:103860001FC0FE01E95AFF4F80E991E091838083F8
:10387000FE01E95AFF4F808191810197F1F7FE0126
:10388000E95AFF4F91838083DE01A75ABF4FFE01A3
:10389000E75AFF4F80819181019711969C938E93F7
:1038A000FE01E75AFF4F808191810097D1F627C032
:1038B0008E01075A1F4FFE01E55AFF4F608171814B
:1038C000828193810E944100DC01CB01F801918348
:1038D0008083DE01AB5ABF4FFE01E75AFF4F808164
:1038E00091818D939C93FE01EB5AFF4F80819181D2
:1038F0000197F1F7FE01EB5AFF4F9183808382E03D
:1039000065E040E00E94D518FE01EF5AFF4F80E0CD
:1039100090E0A8E4B2E480839183A283B3838E0114
:10392000035B1F4FFE01EF5AFF4F6081718182815F
:10393000938120E030E04AE755E40E941702DC0161
:10394000CB01F80180839183A283B383FE01E35B03
:10395000FF4F608171818281938120E030E040E8F7
:103960005FE30E947D04882344F4FE01E55BFF4F82
:1039700081E090E09183808364C0FE01E35BFF4FB0
:10398000608171818281938120E03FEF4FE757E4AE
:103990000E941D0418160CF043C0FE01EF5AFF4FA1
:1039A000608171818281938120E030E040E251E4C6
:1039B0000E941702DC01CB018E01055B1F4FBC0189
:1039C000CD010E944100DC01CB01F801918380838D
:1039D0001FC0FE01E75BFF4F80E991E09183808388
:1039E000FE01E75BFF4F808191810197F1F7FE01B6
:1039F000E75BFF4F91838083DE01A55BBF4FFE0134
:103A0000E55BFF4F80819181019711969C938E9386
:103A1000FE01E55BFF4F808191810097D1F627C0C1
:103A20008E01055B1F4FFE01E35BFF4F60817181DB
:103A3000828193810E944100DC01CB01F8019183D6
:103A40008083DE01A95BBF4FFE01E55BFF4F8081F4
:103A500091818D939C93FE01E95BFF4F8081918161
:103A60000197F1F7FE01E95BFF4F9183808382E0CC
:103A700065E041E00E94D518FE01ED5BFF4F80E05C
:103A800090E0A8E4B2E480839183A283B3838E01A3
:103A9000015C1F4FFE01ED5BFF4F608171818281F0
:103AA000938120E030E04AE755E40E941702DC01F0
:103AB000CB01F80180839183A283B383FE01FF963B
:103AC000608171818281938120E030E040E85FE392
:103AD0000E947D0488232CF481E090E09EAF8DAF9E
:103AE00046C0FE01FF96608171818281938120E052
:103AF0003FEF4FE757E40E941D04181664F5FE01DE
:103B0000ED5BFF4F608171818281938120E030E025
:103B100040E251E40E941702DC01CB01BC01CD015F
:103B20000E944100DC01CB019EAF8DAF0FC080E948
:103B300091E09CAF8BAF8BAD9CAD0197F1F79CAF43
:103B40008BAF8DAD9EAD01979EAF8DAF8DAD9EAD10
:103B5000009769F716C0FE01FF966081718182812E
:103B600093810E944100DC01CB019EAF8DAF8DADF2
:103B70009EAD9AAF89AF89AD9AAD0197F1F79AAF33
:103B800089AF82E065E040E00E94D51880E090E0D7
:103B9000A8E4B2E48DAB9EABAFABB8AF6DA97EA984
:103BA0008FA998AD20E030E04AE755E40E94170263
:103BB000DC01CB0189AB9AABABABBCAB69A97AA9F1
:103BC0008BA99CA920E030E040E85FE30E947D04DF
:103BD00088232CF481E090E098AB8FA73FC069A9BF
:103BE0007AA98BA99CA920E03FEF4FE757E40E94F8
:103BF0001D0418164CF56DA97EA98FA998AD20E07B
:103C000030E040E251E40E941702DC01CB01BC012C
:103C1000CD010E944100DC01CB0198AB8FA70FC002
:103C200080E991E09EA78DA78DA59EA50197F1F74C
:103C30009EA78DA78FA598A9019798AB8FA78FA551
:103C400098A9009769F714C069A97AA98BA99CA9BA
:103C50000E944100DC01CB0198AB8FA78FA598A9EA
:103C60009CA78BA78BA59CA50197F1F79CA78BA779
:103C700082E065E041E00E94D51880E090E0A8E491
:103C8000B2E48FA398A7A9A7BAA76FA178A589A521
:103C90009AA520E030E04AE755E40E941702DC01D3
:103CA000CB018BA39CA3ADA3BEA36BA17CA18DA1D3
:103CB0009EA120E030E040E85FE30E947D0488237D
:103CC0002CF481E090E09AA389A33FC06BA17CA172
:103CD0008DA19EA120E03FEF4FE757E40E941D0415
:103CE00018164CF56FA178A589A59AA520E030E0BB
:103CF00040E251E40E941702DC01CB01BC01CD017E
:103D00000E944100DC01CB019AA389A30FC080E986
:103D100091E098A38F8F8F8D98A10197F1F798A3C9
:103D20008F8F89A19AA101979AA389A389A19AA1AA
:103D3000009769F714C06BA17CA18DA19EA10E9480
:103D40004100DC01CB019AA389A389A19AA19E8F8E
:103D50008D8F8D8D9E8D0197F1F79E8F8D8F82E0D7
:103D600065E040E00E94D51880E090E0A8E4B2E46D
:103D7000898F9A8FAB8FBC8F698D7A8D8B8D9C8D3F
:103D800020E030E04AE755E40E941702DC01CB0155
:103D90008D8B9E8BAF8BB88F6D897E898F89988D27
:103DA00020E030E040E85FE30E947D0488232CF4AB
:103DB00081E090E09C8B8B8B3FC06D897E898F89E1
:103DC000988D20E03FEF4FE757E40E941D0418163E
:103DD0004CF5698D7A8D8B8D9C8D20E030E040E232
:103DE00051E40E941702DC01CB01BC01CD010E940D
:103DF0004100DC01CB019C8B8B8B0FC080E991E0F3
:103E00009A8B898B89899A890197F1F79A8B898B8B
:103E10008B899C8901979C8B8B8B8B899C890097C4
:103E200069F714C06D897E898F89988D0E94410041
:103E3000DC01CB019C8B8B8B8B899C89988B8F872A
:103E40008F8598890197F1F7988B8F8782E065E0DD
:103E500041E00E94D51880E090E0A8E4B2E48B87AE
:103E60009C87AD87BE876B857C858D859E8520E090
:103E700030E04AE755E40E941702DC01CB018F8352
:103E80009887A987BA876F81788589859A8520E088
:103E900030E040E85FE30E947D0488232CF481E059
:103EA00090E09E838D833FC06F81788589859A8558
:103EB00020E03FEF4FE757E40E941D0418164CF531
:103EC0006B857C858D859E8520E030E040E251E465
:103ED0000E941702DC01CB01BC01CD010E94410010
:103EE000DC01CB019E838D830FC080E991E09C8330
:103EF0008B838B819C810197F1F79C838B838D81D0
:103F00009E8101979E838D838D819E81009769F7A5
:103F100014C06F81788589859A850E944100DC01F3
:103F2000CB019E838D838D819E819A838983898134
:103F30009A810197F1F79A83898382E065E040E0F6
:103F40000E94D518CE59DF4F0FB6F894DEBF0FBED2
:103F5000CDBFCF91DF911F910F910895DF93CF9344
:103F6000CDB7DEB784E00E943D1680E00E943D168A
:103F700081E00E943D1680E00E943D1680E690E0C0
:103F80000E94591384E00E943D1683E00E943D1672
:103F900080E00E943D1682E00E943D1681E00E9472
:103FA0003D1680E00E943D16CF91DF9108950F935A
:103FB0001F93DF93CF93CDB7DEB7C655D0400FB672
:103FC000F894DEBF0FBECDBFFE01EB5AFF4F85E078
:103FD00080832AC381E064E00E948C138EE20E94F9
:103FE000910FFE01EF5AFF4F80E090E0A8ECB2E4A1
:103FF00080839183A283B3838E01035B1F4FFE01F5
:10400000EF5AFF4F608171818281938120E030E01F
:104010004AE755E40E941702DC01CB01F8018083D6
:104020009183A283B383FE01E35BFF4F60817181C3
:104030008281938120E030E040E85FE30E947D04CC
:10404000882344F4FE01E55BFF4F81E090E091831B
:10405000808364C0FE01E35BFF4F608171818281D8
:10406000938120E03FEF4FE757E40E941D041816AC
:104070000CF043C0FE01EF5AFF4F608171818281D5
:10408000938120E030E040E251E40E941702DC011D
:10409000CB018E01055B1F4FBC01CD010E94410089
:1040A000DC01CB01F801918380831FC0FE01E75B37
:1040B000FF4F80E991E091838083FE01E75BFF4F32
:1040C000808191810197F1F7FE01E75BFF4F9183BA
:1040D0008083DE01A55BBF4FFE01E55BFF4F808162
:1040E0009181019711969C938E93FE01E55BFF4FA2
:1040F000808191810097D1F627C08E01055B1F4F0B
:10410000FE01E35BFF4F60817181828193810E9498
:104110004100DC01CB01F80191838083DE01A95BC2
:10412000BF4FFE01E55BFF4F808191818D939C9392
:10413000FE01E95BFF4F808191810197F1F7FE015C
:10414000E95BFF4F9183808381E063E00E948C13E1
:104150008EE20E94910FFE01ED5BFF4F80E090E048
:10416000A8ECB2E480839183A283B3838E01015CC7
:104170001F4FFE01ED5BFF4F608171818281938152
:1041800020E030E04AE755E40E941702DC01CB0151
:10419000F80180839183A283B383FE01FF9660813F
:1041A00071818281938120E030E040E85FE30E94EA
:1041B0007D0488232CF481E090E09EAF8DAF46C053
:1041C000FE01FF96608171818281938120E03FEF43
:1041D0004FE757E40E941D04181664F5FE01ED5BDD
:1041E000FF4F608171818281938120E030E040E265
:1041F00051E40E941702DC01CB01BC01CD010E94F9
:104200004100DC01CB019EAF8DAF0FC080E991E092
:104210009CAF8BAF8BAD9CAD0197F1F79CAF8BAF93
:104220008DAD9EAD01979EAF8DAF8DAD9EAD0097CC
:1042300069F716C0FE01FF966081718182819381CA
:104240000E944100DC01CB019EAF8DAF8DAD9EADD4
:104250009AAF89AF89AD9AAD0197F1F79AAF89AF5F
:1042600081E062E00E948C138EE20E94910F80E058
:1042700090E0A8ECB2E48DAB9EABAFABB8AF6DA94C
:104280007EA98FA998AD20E030E04AE755E40E946E
:104290001702DC01CB0189AB9AABABABBCAB69A914
:1042A0007AA98BA99CA920E030E040E85FE30E9456
:1042B0007D0488232CF481E090E098AB8FA73FC069
:1042C00069A97AA98BA99CA920E03FEF4FE757E4A1
:1042D0000E941D0418164CF56DA97EA98FA998ADF2
:1042E00020E030E040E251E40E941702DC01CB0103
:1042F000BC01CD010E944100DC01CB0198AB8FA72E
:104300000FC080E991E09EA78DA78DA59EA501977E
:10431000F1F79EA78DA78FA598A9019798AB8FA7B6
:104320008FA598A9009769F714C069A97AA98BA9E4
:104330009CA90E944100DC01CB0198AB8FA78FA5FF
:1043400098A99CA78BA78BA59CA50197F1F79CA783
:104350008BA781E062E00E948C1380E20E94910FA3
:1043600080E090E0A8ECB2E48FA398A7A9A7BAA731
:104370006FA178A589A59AA520E030E04AE755E429
:104380000E941702DC01CB018BA39CA3ADA3BEA3AB
:104390006BA17CA18DA19EA120E030E040E85FE30D
:1043A0000E947D0488232CF481E090E09AA389A3E5
:1043B0003FC06BA17CA18DA19EA120E03FEF4FE704
:1043C00057E40E941D0418164CF56FA178A589A525
:1043D0009AA520E030E040E251E40E941702DC019F
:1043E000CB01BC01CD010E944100DC01CB019AA3AD
:1043F00089A30FC080E991E098A38F8F8F8D98A13A
:104400000197F1F798A38F8F89A19AA101979AA399
:1044100089A389A19AA1009769F714C06BA17CA117
:104420008DA19EA10E944100DC01CB019AA389A32A
:1044300089A19AA19E8F8D8F8D8D9E8D0197F1F709
:104440009E8F8D8F81E063E00E948C1380E20E943A
:10445000910F80E090E0A8ECB2E4898F9A8FAB8F47
:10446000BC8F698D7A8D8B8D9C8D20E030E04AE782
:1044700055E40E941702DC01CB018D8B9E8BAF8B24
:10448000B88F6D897E898F89988D20E030E040E873
:104490005FE30E947D0488232CF481E090E09C8BF4
:1044A0008B8B3FC06D897E898F89988D20E03FEF8F
:1044B0004FE757E40E941D0418164CF5698D7A8D5C
:1044C0008B8D9C8D20E030E040E251E40E94170289
:1044D000DC01CB01BC01CD010E944100DC01CB011C
:1044E0009C8B8B8B0FC080E991E09A8B898B89899B
:1044F0009A890197F1F79A8B898B8B899C8901970F
:104500009C8B8B8B8B899C89009769F714C06D8974
:104510007E898F89988D0E944100DC01CB019C8BA4
:104520008B8B8B899C89988B8F878F859889019736
:10453000F1F7988B8F8781E064E00E948C1380E212
:104540000E94910F80E090E0A8ECB2E48B879C87FA
:10455000AD87BE876B857C858D859E8520E030E0AC
:104560004AE755E40E941702DC01CB018F8398874C
:10457000A987BA876F81788589859A8520E030E0A0
:1045800040E85FE30E947D0488232CF481E090E002
:104590009E838D833FC06F81788589859A8520E0D1
:1045A0003FEF4FE757E40E941D0418164CF56B854A
:1045B0007C858D859E8520E030E040E251E40E94BC
:1045C0001702DC01CB01BC01CD010E944100DC01DE
:1045D000CB019E838D830FC080E991E09C838B8308
:1045E0008B819C810197F1F79C838B838D819E81C8
:1045F00001979E838D838D819E81009769F714C0FA
:104600006F81788589859A850E944100DC01CB0104
:104610009E838D838D819E819A83898389819A81EE
:104620000197F1F79A838983FE01EB5AFF4F80814E
:1046300067968FAF67976796EFAD6797EE2321F088
:10464000F1E06796FFAF679767969FAD6797DE01CA
:10465000AB5ABF4FFE01EB5AFF4F808181508C93C4
:10466000992309F0B7CCCA5ADF4F0FB6F894DEBFD2
:104670000FBECDBFCF91DF911F910F910895AF92E3
:10468000BF92CF92DF92EF92FF920F931F93DF932F
:10469000CF93CDB7DEB7CA5CD0400FB6F894DEBF7B
:1046A0000FBECDBF0E94CD0782E065E041E00E94D1
:1046B000EA1782E060E041E00E94EA1782E065E0EC
:1046C00040E00E94D51882E060E040E00E94D518EA
:1046D0009E01245C3F4FCE54DF4F39832883C25B59
:1046E000D04083ED91E0CC54DF4F99838883C45B45
:1046F000D04097E0CA54DF4F9883C65BD040CC547B
:10470000DF4FE881F981C45BD0400080CC54DF4F9B
:1047100028813981C45BD0402F5F3F4FCC54DF4F9D
:1047200039832883C45BD040CE54DF4FE881F981C0
:10473000C25BD0400082CE54DF4F28813981C25BFA
:10474000D0402F5F3F4FCE54DF4F39832883C25B69
:10475000D040CA54DF4F3881C65BD0403150CA5474
:10476000DF4F3883C65BD040CA54DF4F8881C65BB9
:10477000D040882321F6CE018D5B9F4FC954DF4F77
:1047800099838883C75BD040ECECF1E0C754DF4FDE
:10479000F983E883C95BD040F7E0C554DF4FF88365
:1047A000CB5BD040C754DF4FE881F981C95BD04073
:1047B0000080C754DF4F28813981C95BD0402F5F0B
:1047C0003F4FC754DF4F39832883C95BD040C9545A
:1047D000DF4FE881F981C75BD0400082C954DF4FC9
:1047E00028813981C75BD0402F5F3F4FC954DF4FCD
:1047F00039832883C75BD040C554DF4F3881CB5BFA
:10480000D0403150C554DF4F3883CB5BD040C554C6
:10481000DF4F8881CB5BD040882321F6CE01865BB9
:104820009F4FC454DF4F99838883CC5BD040E5EC25
:10483000F1E0C254DF4FF983E883CE5BD040F7E06C
:10484000C054DF4FF883C05CD040C254DF4FE881D2
:10485000F981CE5BD0400080C254DF4F288139817E
:10486000CE5BD0402F5F3F4FC254DF4F3983288348
:10487000CE5BD040C454DF4FE881F981CC5BD0409F
:104880000082C454DF4F28813981CC5BD0402F5F38
:104890003F4FC454DF4F39832883CC5BD040C05492
:1048A000DF4F3881C05CD0403150C054DF4F388377
:1048B000C05CD040C054DF4F8881C05CD0408823AA
:1048C00021F6CE018F5A9F4FCF53DF4F99838883B4
:1048D000C15CD040EEEBF1E0CD53DF4FF983E883CC
:1048E000C35CD040F7E0CB53DF4FF883C55CD040CA
:1048F000CD53DF4FE881F981C35CD0400080CD53B8
:10490000DF4F28813981C35CD0402F5F3F4FCD53AB
:10491000DF4F39832883C35CD040CF53DF4FE8811A
:10492000F981C15CD0400082CF53DF4F28813981AB
:10493000C15CD0402F5F3F4FCF53DF4F3983288377
:10494000C15CD040CB53DF4F3881C55CD040315083
:10495000CB53DF4F3883C55CD040CB53DF4F8881CA
:10496000C55CD040882321F6CE01885A9F4FCA5398
:10497000DF4F99838883C65CD040E7EBF1E0C853F2
:10498000DF4FF983E883C85CD040F7E0C653DF4FC0
:10499000F883CA5CD040C853DF4FE881F981C85C16
:1049A000D0400080C853DF4F28813981C85CD04097
:1049B0002F5F3F4FC853DF4F39832883C85CD040F7
:1049C000CA53DF4FE881F981C65CD0400082CA53E8
:1049D000DF4F28813981C65CD0402F5F3F4FCA53DB
:1049E000DF4F39832883C65CD040C653DF4F388100
:1049F000CA5CD0403150C653DF4F3883CA5CD040C8
:104A0000C653DF4F8881CA5CD040882321F6CE018F
:104A1000CC9660E00E940C16CE018D5B9F4F61E04A
:104A20000E940C16CE01865B9F4F62E00E940C161E
:104A3000CE018F5A9F4F63E00E940C16CE01885A18
:104A40009F4F64E00E940C1680E062E00E948C138D
:104A500082E690E00E94591381E063E00E948C138B
:104A60008FE690E00E94591380E090E0AAE7B4E45A
:104A70008FA398A7A9A7BAA76FA178A589A59AA57A
:104A800020E030E04AE755E40E941702DC01CB0148
:104A90008BA39CA3ADA3BEA36BA17CA18DA19EA162
:104AA00020E030E040E85FE30E947D0488232CF49E
:104AB00081E090E09AA389A33FC06BA17CA18DA166
:104AC0009EA120E03FEF4FE757E40E941D04181617
:104AD0004CF56FA178A589A59AA520E030E040E2C9
:104AE00051E40E941702DC01CB01BC01CD010E9400
:104AF0004100DC01CB019AA389A30FC080E991E0BA
:104B000098A38F8F8F8D98A10197F1F798A38F8F1E
:104B100089A19AA101979AA389A389A19AA1009733
:104B200069F714C06BA17CA18DA19EA10E944100D8
:104B3000DC01CB019AA389A389A19AA19E8F8D8FB5
:104B40008D8D9E8D0197F1F79E8F8D8F0E94821320
:104B500080E063E00E948C138AE790E00E94591382
:104B600081E065E00E948C130E94AE1F0E94D71F57
:104B70000E94821380E090E0A0E0B0E08FAB98AF9D
:104B8000A9AFBAAF1EAA81E08DAB1CAA1BAA1AAAB4
:104B90000E944D168BAF8BADE82FF0E0C055DF4F74
:104BA000F983E883C05BD040C055DF4F288139814D
:104BB000C05BD0402C32310534F5C055DF4F8881C1
:104BC0009981C05BD0408A329105D4F5C055DF4F42
:104BD000E881F981C05BD040FF23D4F2C055DF4F9C
:104BE00028813981C05BD0402A3031050CF42AC1BC
:104BF000C055DF4F88819981C05BD0408D309105D1
:104C000009F427C2C5CFC055DF4FE881F981C05BE9
:104C1000D040EF32F105A1F0C055DF4F2881398136
:104C2000C05BD0402D33310509F44BC2C055DF4F76
:104C300088819981C05BD0408D32910509F0A8CF61
:104C40006FA978AD89AD9AAD20E030E040E050E04A
:104C50000E94ED03882391F00E9482138FA998ADE2
:104C6000A9ADBAADBC01CD010E94CA1480E090E0AC
:104C7000A0E0B0E08FAB98AFA9AFBAAF81E08CAB4A
:104C80008BA98F5F8BAB8BA9823038F081E08AAB28
:104C900082E060E041E00E94D5188EA9882F90E064
:104CA0009E01215A3F4F880F991F880F991FF901C4
:104CB000E80FF91F80819181A281B381BC01CD01F0
:104CC00020E030E040E050E00E94BD03882309F579
:104CD0008EA9882F90E001979E01215A3F4F880F9F
:104CE000991F880F991FF901E80FF91F80819181A1
:104CF000A281B381BC01CD0120E030E04CE352E45D
:104D00000E94BD03882329F482E060E041E00E9414
:104D1000D5188EA98F5F8EAB8BAD0E94910F8EA997
:104D2000082F10E08BAD882F90E0A0E0B0E0BC0130
:104D3000CD010E945F059B01AC01BE01615A7F4F0E
:104D4000C801880F991F880F991FFB01E80FF91FF1
:104D5000208331834283538380E090E0A0E2B1E47A
:104D6000898F9A8FAB8FBC8F698D7A8D8B8D9C8D3F
:104D700020E030E04AE755E40E941702DC01CB0155
:104D80008D8B9E8BAF8BB88F6D897E898F89988D27
:104D900020E030E040E85FE30E947D0488232CF4AB
:104DA00081E090E09C8B8B8B3FC06D897E898F89E1
:104DB000988D20E03FEF4FE757E40E941D0418163E
:104DC0004CF5698D7A8D8B8D9C8D20E030E040E232
:104DD00051E40E941702DC01CB01BC01CD010E940D
:104DE0004100DC01CB019C8B8B8B0FC080E991E0F3
:104DF0009A8B898B89899A890197F1F79A8B898B8C
:104E00008B899C8901979C8B8B8B8B899C890097C4
:104E100069F714C06D897E898F89988D0E94410041
:104E2000DC01CB019C8B8B8B8B899C89988B8F872A
:104E30008F8598890197F1F7988B8F878EA98F5F5F
:104E40008EABA6CE6FA978AD89AD9AAD20E030E0EB
:104E500040E050E00E94ED038823B1F00E948213ED
:104E600080E090E0A0E0B0E08FAB98AFA9AFBAAF20
:104E7000FE01E15AFF4F80E090E0A0E0B0E08083C7
:104E80009183A283B3831EAA1BAA1CAA8EA9082FF2
:104E900010E08EA9882F90E09E01215A3F4F880F85
:104EA000991F880F991FF901E80FF91F80819181DF
:104EB000A281B381BC01CD0120E030E040E251E4A9
:104EC0000E941702DC01CB019C01AD01BE01615AB9
:104ED0007F4FC801880F991F880F991FFB01E80FAA
:104EE000F91F20833183428353838EA9C82EDD248A
:104EF0008EA9882F90E09E01215A3F4F880F991F5D
:104F0000880F991FF901E80FF91FE080F1800281F5
:104F100013818BAD882F90E0AA2797FDA095BA2F1B
:104F2000BC01CD010E94AD049B01AC01C801B701D9
:104F30000E94EA01DC01CB019C01AD01BE01615A76
:104F40007F4FC601880F991F880F991FFB01E80F3B
:104F5000F91F20833183428353838BAD882F90E0E8
:104F6000A0E0B0E0BC01CD010E94CE1380E090E053
:104F7000A0E2B1E48B879C87AD87BE876B857C857B
:104F80008D859E8520E030E04AE755E40E941702B7
:104F9000DC01CB018F839887A987BA876F817885D9
:104FA00089859A8520E030E040E85FE30E947D0437
:104FB00088232CF481E090E09E838D833FC06F8135
:104FC000788589859A8520E03FEF4FE757E40E9476
:104FD0001D0418164CF56B857C858D859E8520E01B
:104FE00030E040E251E40E941702DC01CB01BC0139
:104FF000CD010E944100DC01CB019E838D830FC057
:1050000080E991E09C838B838B819C810197F1F7F0
:105010009C838B838D819E8101979E838D838D815F
:105020009E81009769F7B4CD6F81788589859A85CF
:105030000E944100DC01CB019E838D838D819E8186
:105040009A83898389819A810197F1F79A83898369
:105050009FCD0E9482131EAA80E090E0A0E0B0E005
:105060008FAB98AFA9AFBAAF81E08DAB1CAA1BAADA
:105070001AAA19AA18C089A9882F90E09E01215A5E
:105080003F4F880F991F880F991FF901E80FF91FEB
:1050900080E090E0A0E0B0E080839183A283B383BE
:1050A00089A98F5F89AB89A9843128F382E065E003
:1050B00040E00E94D51882E060E040E00E94D518F0
:1050C00067CD8CA9813019F08AA9813079F50E94C9
:1050D000821381E061E00E948C1384E890E00E94DA
:1050E00059130E94BA1B1EAA18AA18C088A9882F93
:1050F00090E09E01215A3F4F880F991F880F991FFA
:10510000F901E80FF91F80E090E0A0E0B0E08083B3
:105110009183A283B38388A98F5F88AB88A98431E8
:1051200028F31DAA1CAA1BAA1AAA32CD1FA647C182
:105130008FA5882F90E09E01215A3F4F880F991F1D
:10514000880F991FF901E80FF91F80819181A281D1
:10515000B381BC01CD0120E030E04CE352E40E9479
:10516000BD03882309F051C08FA5882F90E00196D8
:105170009E01215A3F4F880F991F880F991FF901EF
:10518000E80FF91F80819181A281B381BC01CD011B
:1051900020E030E040E050E00E94BD038823A9F504
:1051A0000E94821380E060E00E948C1381E990E00D
:1051B0000E94591381E060E00E948C1387E990E01F
:1051C0000E9459130E94BA1B1EAA1EA618C08EA5C3
:1051D000882F90E09E01215A3F4F880F991F880F1A
:1051E000991FF901E80FF91F80E090E0A0E0B0E01E
:1051F00080839183A283B3838EA58F5F8EA78EA5B4
:10520000843128F31DAA1CAADFC08FA5882F90E047
:105210009E01215A3F4F880F991F880F991FF9014E
:10522000E80FF91F80819181A281B381C155DF4FC1
:105230001882CF5AD040BC01CD0120E030E048E2D6
:1052400052E40E94ED03882331F091E0C155DF4F15
:105250009883CF5AD04081E0C155DF4FE881CF5AC3
:10526000D0408E278823E1F48FA5882F90E09E01FF
:10527000215A3F4F880F991F880F991FF901E80F96
:10528000F91F80819181A281B381BC01CD0120E011
:1052900030E04CE352E40E94ED03882309F08CC017
:1052A0008FA5882F90E05C010894A108B1088FA514
:1052B000882F90E001979E01215A3F4F880F991F38
:1052C000880F991FF901E80FF91FC080D180E28093
:1052D000F3808FA5882F90E09E01215A3F4F880FC1
:1052E000991F880F991FF901E80FF91F808191819B
:1052F000A281B381BC01CD010E944100DC01CB0140
:10530000482F8FA5882F90E001969E01215A3F4F8C
:10531000880F991F880F991FF901E80FF91F008165
:10532000118122813381C701B6010E94281B9B0194
:10533000AC01BE01615A7F4FC501880F991F880FCC
:10534000991FFB01E80FF91F2083318342835383A8
:105350008FA58DA727C08DA5A82FB0E08DA5882F7C
:1053600090E002969E01215A3F4F880F991F880FA7
:10537000991FF901E80FF91F208131814281538182
:10538000BE01615A7F4FCD01880F991F880F991F69
:10539000FB01E80FF91F20833183428353838DA5DE
:1053A0008F5F8DA79DA58EA98917A8F68EA982501B
:1053B0008EAB8FA581508FA78FA58F5F8FA79FA5DD
:1053C0008EA9891708F0B4CEFE01E15AFF4F808103
:1053D0009181A281B3818FAB98AFA9AFBAAF81E0C1
:1053E0008CA73BC08CA5882F90E09E01215A3F4F8F
:1053F000880F991F880F991FF901E80FF91F808105
:105400009181A281B381BC01CD010E944100DC01E8
:10541000CB01482F8CA5882F90E001969E01215A40
:105420003F4F880F991F880F991FF901E80FF91F47
:1054300000811181228133818FA998ADA9ADBAADC8
:10544000BC01CD010E94281BDC01CB018FAB98AFC2
:10545000A9AFBAAF8CA58E5F8CA79CA58EA9891722
:1054600008F68DA9813009F093CB81E060E00E94BD
:105470008C1386EA90E00E9459138FA998ADA9ADCC
:10548000BAADBC01CD010E94CA141EAA1BA618C049
:105490008BA5882F90E09E01215A3F4F880F991FBE
:1054A000880F991FF901E80FF91F80E090E0A0E054
:1054B000B0E080839183A283B3838BA58F5F8BA79A
:1054C0008BA58A3028F3FE01E15AFF4F8FA998ADD2
:1054D000A9ADBAAD80839183A283B38381E08DAB04
:1054E0001CAA1AAA1BAA82E065E040E00E94D51817
:1054F00082E060E040E00E94D5184ACB629FD00174
:10550000739FF001829FE00DF11D649FE00DF11D7E
:10551000929FF00D839FF00D749FF00D659FF00D2D
:105520009927729FB00DE11DF91F639FB00DE11D1A
:10553000F91FBD01CF0111240895AA1BBB1B51E126
:1055400007C0AA1FBB1FA617B70710F0A61BB70BF3
:10555000881F991F5A95A9F780959095BC01CD0198
:10556000089597FB092E05260ED057FD04D014D0C0
:105570000AD0001C38F450954095309521953F4F46
:105580004F4F5F4F0895F6F7909580957095619510
:105590007F4F8F4F9F4F0895A1E21A2EAA1BBB1B6E
:1055A000FD010DC0AA1FBB1FEE1FFF1FA217B307EF
:1055B000E407F50720F0A21BB30BE40BF50B661F05
:1055C000771F881F991F1A9469F7609570958095C9
:1055D00090959B01AC01BD01CF0108952F923F92A0
:1055E0004F925F926F927F928F929F92AF92BF92F3
:1055F000CF92DF92EF92FF920F931F93CF93DF939F
:10560000CDB7DEB7CA1BDB0B0FB6F894DEBF0FBEFB
:10561000CDBF09942A88398848885F846E847D8448
:105620008C849B84AA84B984C884DF80EE80FD804A
:105630000C811B81AA81B981CE0FD11D0FB6F894C0
:0E564000DEBF0FBECDBFED010895F894FFCF81
:10564E0020004E6F7420612053696D706C6500638D
:10565E00616C63756C61746F72004D61646520429C
:10566E0079203A0053796E746178204572726F72A8
:10567E00004572726F7200646976696465206279A2
:10568E00207A65726F00726573756C743A20000033
:10569E0000000000000000000102020303030304E7
:1056AE0004040404040404050505050505050505A3
:1056BE000505050505050506060606060606060683
:1056CE00060606060606060606060606060606066C
:1056DE000606060606060607070707070707070753
:1056EE00070707070707070707070707070707073C
:1056FE00070707070707070707070707070707072C
:10570E00070707070707070707070707070707071B
:10571E000707070707070708080808080808080802
:10572E0008080808080808080808080808080808EB
:10573E0008080808080808080808080808080808DB
:10574E0008080808080808080808080808080808CB
:10575E0008080808080808080808080808080808BB
:10576E0008080808080808080808080808080808AB
:10577E00080808080808080808080808080808089B
:10578E00080808080808080808080808080808088B
:10579E00080808080808081F1D1D111F1F1F1F11CC
:1057AE0015101D111F1F1F1F001F1F1F1F111D0171
:0A57BE001F1F1F1F1115011F1F1FE1
:00000001FF
